:1000000002308A00972A0000FF00030E8301A1003E
:100010000A08A0008A010408A2007708A300780853
:10002000A4007908A5007A08A600831383120B1E8A
:100030001B288B1833288B1E1F280B1930282208E9
:1000400084002308F7002408F8002508F900260892
:10005000FA0020088A00210E8300FF0E7F0E09009F
:100060008A110A1236288A110A125928BB0A3B083B
:10007000093C03184028BB01AE01AD01AC01AB0146
:10008000BA08031D5528B908031D5528B808031DD3
:1000900055283708313C031C55280130B707031891
:1000A000B80A0319B90A0319BA0A0B118A110A12FC
:1000B0001F280530A7008B108A110A121F288316EB
:1000C0000108C0390638810083128B160B1683167F
:1000D0000117C03083128B04FF3083168500013076
:1000E000860005308700811783128501860187010C
:1000F0008A110A12B82AA901A8010A30AA00AE0181
:10010000AD01AC01AB01A700BA01B901B8013230B1
:10011000B700B601B501B401B301BB018A110A12DF
:10012000B92A3D308400831300080319A528013043
:10013000F800F701F70B9A28F80B99284A30F700D6
:10014000F70BA028A328800B972808008710A90187
:100150000830A800A908031DB1282808003C03188E
:10016000C7280230870687110712871207138713E3
:1001700086100611861106128612061386137D302C
:10018000BD00912028080319A903A803AA288710F5
:100190008A110A12BA2A0B160A30A70027080A3C4D
:1001A0000319CE280310AB0DAC0DAD0DAE0D013013
:1001B000BD00912006182B148A110A12BB2A0B12BB
:1001C0000230BC00FA30BD009120BC0BE228BA011D
:1001D000B901B801B70187100B1608002B08AF0052
:1001E0002C08B0002D08B100B201BA08031D38294F
:1001F000B908031D3829B808031D38293708023CFF
:10020000031C382933082F02031D37293408300214
:10021000031D372935083102031D372936083202FC
:10022000031D3729871107128712071387138610BA
:10023000061186110612861206138613BA01B90139
:10024000B8013230B700A9012830A800A908031D61
:100250002D292808003C0318372902308706323040
:10026000BD00912028080319A903A8032629942A70
:10027000BA08031D4529B908031D4529B808031DFF
:1002800045293708023C0318942A2F08033C031D14
:10029000612930085F3C031D61293108543C031D6E
:1002A0006129B208031D61293208B6003108B50082
:1002B0003008B4002F08B300871408308706DF2009
:1002C000942A2F080C3C031D7D2930085F3C031D38
:1002D0007D293108543C031D7D29B208031D7D2969
:1002E0003208B6003108B5003008B4002F08B3005A
:1002F000871410308706DF20942A2F080F3C031D37
:10030000992930085F3C031D99293108543C031D8D
:100310009929B208031D99293208B6003108B500A1
:100320003008B4002F08B300871420308706DF2080
:10033000942A2F08303C031DB52930085F3C031D6B
:10034000B5293108543C031DB529B208031DB52950
:100350003208B6003108B5003008B4002F08B300E9
:10036000871440308706DF20942A2F08333C031D72
:10037000D12930085F3C031DD1293108543C031DAD
:10038000D129B208031DD1293208B6003108B500C1
:100390003008B4002F08B300871480308706DF20B0
:1003A000942A2F083C3C031DED2930085F3C031DB7
:1003B000ED293108543C031DED29B208031DED2938
:1003C0003208B6003108B5003008B4002F08B30079
:1003D000871402308606DF20942A2F083F3C031D35
:1003E000092A30085F3C031D092A3108543C031DCB
:1003F000092AB208031D092A3208B6003108B500DF
:100400003008B4002F08B300871404308606DF20BC
:10041000942A2F08C03C031D252A30085F3C031D89
:10042000252A3108543C031D252AB208031D252A1C
:100430003208B6003108B5003008B4002F08B30008
:10044000871408308606DF20942A2F08C33C031D3A
:10045000412A30085F3C031D412A3108543C031DEA
:10046000412AB208031D412A3208B6003108B500FE
:100470003008B4002F08B300871410308606DF2040
:10048000942A2F08CC3C031D5D2A30085F3C031DD5
:100490005D2A3108543C031D5D2AB208031D5D2A04
:1004A0003208B6003108B5003008B4002F08B30098
:1004B000871420308606DF20942A2F08CF3C031DA6
:1004C000792A30085F3C031D792A3108543C031D0A
:1004D000792AB208031D792A3208B6003108B5001E
:1004E0003008B4002F08B300871440308606DF20A0
:1004F000942A2F08F03C031D942A30085F3C031D0A
:10050000942A3108543C031D942AB208031D942AEE
:100510003208B6003108B5003008B4002F08B30027
:10052000871480308606DF208A110A12BC2A03084D
:100530001F3983000A30A700A901A801AA01AE0152
:10054000AD01AC01AB01B201B101B001AF01B60127
:10055000B501B401B301BA01B901B801B701BB01DA
:1005600083161F149F141F159F11831383125F2876
:0C0570007B28A628CB28EE28BA2A6300BE
:02400E00313F40
:00000001FF
;PIC16F876
;CRC=93FB  CREATED="04-Kas-21 16:29"
